{
  "contractName": "Ballot",
  "abi": [
    {
      "inputs": [],
      "payable": false,
      "stateMutability": "nonpayable",
      "type": "constructor"
    },
    {
      "constant": true,
      "inputs": [],
      "name": "chairPerson",
      "outputs": [
        {
          "internalType": "address",
          "name": "",
          "type": "address"
        }
      ],
      "payable": false,
      "stateMutability": "view",
      "type": "function"
    },
    {
      "constant": true,
      "inputs": [
        {
          "internalType": "uint256",
          "name": "",
          "type": "uint256"
        }
      ],
      "name": "voteCount",
      "outputs": [
        {
          "internalType": "uint256",
          "name": "",
          "type": "uint256"
        }
      ],
      "payable": false,
      "stateMutability": "view",
      "type": "function"
    },
    {
      "constant": false,
      "inputs": [
        {
          "internalType": "address",
          "name": "toVoter",
          "type": "address"
        }
      ],
      "name": "register",
      "outputs": [],
      "payable": false,
      "stateMutability": "nonpayable",
      "type": "function"
    },
    {
      "constant": false,
      "inputs": [
        {
          "internalType": "uint256",
          "name": "toProposal",
          "type": "uint256"
        }
      ],
      "name": "vote",
      "outputs": [],
      "payable": false,
      "stateMutability": "nonpayable",
      "type": "function"
    },
    {
      "constant": true,
      "inputs": [],
      "name": "winningProposal",
      "outputs": [
        {
          "internalType": "uint256",
          "name": "_winningProposal",
          "type": "uint256"
        }
      ],
      "payable": false,
      "stateMutability": "view",
      "type": "function"
    },
    {
      "constant": true,
      "inputs": [],
      "name": "getVoteCount",
      "outputs": [
        {
          "internalType": "uint256[35]",
          "name": "",
          "type": "uint256[35]"
        }
      ],
      "payable": false,
      "stateMutability": "view",
      "type": "function"
    }
  ],
  "bytecode": "0x608060405234801561001057600080fd5b5033602360006101000a81548173ffffffffffffffffffffffffffffffffffffffff021916908373ffffffffffffffffffffffffffffffffffffffff160217905550610536806100616000396000f3fe608060405234801561001057600080fd5b50600436106100625760003560e01c80630121b93f146100675780634420e486146100955780634fc8a20d146100d9578063609ff1bd1461011b578063d4d4b5ac14610139578063e7b3387c14610183575b600080fd5b6100936004803603602081101561007d57600080fd5b81019080803590602001909291905050506101c9565b005b6100d7600480360360208110156100ab57600080fd5b81019080803573ffffffffffffffffffffffffffffffffffffffff169060200190929190505050610295565b005b610105600480360360208110156100ef57600080fd5b8101908080359060200190929190505050610402565b6040518082815260200191505060405180910390f35b61012361041a565b6040518082815260200191505060405180910390f35b61014161046d565b604051808273ffffffffffffffffffffffffffffffffffffffff1673ffffffffffffffffffffffffffffffffffffffff16815260200191505060405180910390f35b61018b610493565b6040518082602360200280838360005b838110156101b657808201518184015260208101905061019b565b5050505090500191505060405180910390f35b6000602460003373ffffffffffffffffffffffffffffffffffffffff1673ffffffffffffffffffffffffffffffffffffffff16815260200190815260200160002090508060000160009054906101000a900460ff168061022a575060238210155b8061024457508060020160009054906101000a900460ff16155b1561024e57600080fd5b60018160000160006101000a81548160ff02191690831515021790555081816001018190555060016000836023811061028357fe5b01600082825401925050819055505050565b602360009054906101000a900473ffffffffffffffffffffffffffffffffffffffff1673ffffffffffffffffffffffffffffffffffffffff163373ffffffffffffffffffffffffffffffffffffffff16146102ef57600080fd5b602460008273ffffffffffffffffffffffffffffffffffffffff1673ffffffffffffffffffffffffffffffffffffffff16815260200190815260200160002060020160009054906101000a900460ff161561034957600080fd5b6000602460008373ffffffffffffffffffffffffffffffffffffffff1673ffffffffffffffffffffffffffffffffffffffff16815260200190815260200160002060000160006101000a81548160ff0219169083151502179055506001602460008373ffffffffffffffffffffffffffffffffffffffff1673ffffffffffffffffffffffffffffffffffffffff16815260200190815260200160002060020160006101000a81548160ff02191690831515021790555050565b6000816023811061040f57fe5b016000915090505481565b6000806000905060008090505b602381101561046857816000826023811061043e57fe5b0154111561045b576000816023811061045357fe5b015491508092505b8080600101915050610427565b505090565b602360009054906101000a900473ffffffffffffffffffffffffffffffffffffffff1681565b61049b6104de565b60006023806020026040519081016040528092919082602380156104d4576020028201915b8154815260200190600101908083116104c0575b5050505050905090565b60405180610460016040528060239060208202803883398082019150509050509056fea265627a7a72315820da59b697177633c1c5d4b19e4d7c580d63275cdf6bde7c338c03acf2df2a779d64736f6c63430005100032",
  "source": "// SPDX-License-Identifier: MIT\npragma solidity >=0.4.22 <0.9.0;\n\ncontract Ballot {\n    \n    struct Voter {\n        bool voted;\n        uint vote;\n        bool registered;\n    }\n\n    uint[35] public voteCount;\n    address public chairPerson;\n    mapping(address => Voter) voters;\n\n    modifier onlyOwner() {\n        require(msg.sender == chairPerson);\n        _;\n    }\n    \n    constructor() public {\n        chairPerson = msg.sender;\n    }\n\n    function register(address toVoter) public onlyOwner {\n        if (voters[toVoter].registered) revert();\n        voters[toVoter].voted = false;\n        voters[toVoter].registered = true;\n    }\n\n    function vote(uint toProposal) public {\n        Voter storage sender = voters[msg.sender];\n        if (sender.voted || toProposal >= 35 || !sender.registered) {\n            revert();\n        }\n        sender.voted = true;\n        sender.vote = toProposal;\n        voteCount[toProposal] += 1;\n    }\n\n    function winningProposal() public view returns (uint256 _winningProposal) {\n        uint winningVoteCount = 0;\n        for (uint256 index = 0; index < 35; index++) {\n            if (voteCount[index] > winningVoteCount) {\n                winningVoteCount = voteCount[index];\n                _winningProposal = index;\n            }\n        }\n    }\n\n    function getVoteCount() public view returns (uint[35] memory) {\n        return voteCount;\n    }\n}\n",
  "sourcePath": "/home/abel/BlockchainElectionVoting/contracts/Ballot.sol",
  "compiler": {
    "name": "solc",
    "version": "0.5.16+commit.9c3226ce.Emscripten.clang"
  },
  "schemaVersion": "3.4.3",
  "updatedAt": "2021-08-19T02:14:02.987Z",
  "networkType": "ethereum",
  "devdoc": {
    "methods": {}
  },
  "userdoc": {
    "methods": {}
  }
}