{
  "contractName": "Ballot",
  "abi": [
    {
      "inputs": [],
      "payable": false,
      "stateMutability": "nonpayable",
      "type": "constructor"
    },
    {
      "constant": true,
      "inputs": [],
      "name": "chairPerson",
      "outputs": [
        {
          "internalType": "address",
          "name": "",
          "type": "address"
        }
      ],
      "payable": false,
      "stateMutability": "view",
      "type": "function"
    },
    {
      "constant": true,
      "inputs": [
        {
          "internalType": "uint256",
          "name": "",
          "type": "uint256"
        }
      ],
      "name": "voteCount",
      "outputs": [
        {
          "internalType": "uint256",
          "name": "",
          "type": "uint256"
        }
      ],
      "payable": false,
      "stateMutability": "view",
      "type": "function"
    },
    {
      "constant": true,
      "inputs": [
        {
          "internalType": "uint256",
          "name": "id",
          "type": "uint256"
        }
      ],
      "name": "getChairPerson",
      "outputs": [
        {
          "internalType": "address",
          "name": "",
          "type": "address"
        }
      ],
      "payable": false,
      "stateMutability": "view",
      "type": "function"
    },
    {
      "constant": false,
      "inputs": [
        {
          "internalType": "address",
          "name": "toVoter",
          "type": "address"
        }
      ],
      "name": "register",
      "outputs": [],
      "payable": false,
      "stateMutability": "nonpayable",
      "type": "function"
    },
    {
      "constant": false,
      "inputs": [
        {
          "internalType": "uint256",
          "name": "toProposal",
          "type": "uint256"
        }
      ],
      "name": "vote",
      "outputs": [],
      "payable": false,
      "stateMutability": "nonpayable",
      "type": "function"
    },
    {
      "constant": true,
      "inputs": [
        {
          "internalType": "uint256",
          "name": "id",
          "type": "uint256"
        }
      ],
      "name": "winningProposal",
      "outputs": [
        {
          "internalType": "uint256",
          "name": "_winningProposal",
          "type": "uint256"
        }
      ],
      "payable": false,
      "stateMutability": "view",
      "type": "function"
    },
    {
      "constant": true,
      "inputs": [
        {
          "internalType": "uint256",
          "name": "id",
          "type": "uint256"
        }
      ],
      "name": "getVoteCount",
      "outputs": [
        {
          "internalType": "uint256[35]",
          "name": "",
          "type": "uint256[35]"
        }
      ],
      "payable": false,
      "stateMutability": "view",
      "type": "function"
    }
  ],
  "bytecode": "0x608060405234801561001057600080fd5b5033602360006101000a81548173ffffffffffffffffffffffffffffffffffffffff021916908373ffffffffffffffffffffffffffffffffffffffff160217905550600160246000602360009054906101000a900473ffffffffffffffffffffffffffffffffffffffff1673ffffffffffffffffffffffffffffffffffffffff1673ffffffffffffffffffffffffffffffffffffffff16815260200190815260200160002060020160006101000a81548160ff021916908315150217905550600060246000602360009054906101000a900473ffffffffffffffffffffffffffffffffffffffff1673ffffffffffffffffffffffffffffffffffffffff1673ffffffffffffffffffffffffffffffffffffffff16815260200190815260200160002060000160006101000a81548160ff0219169083151502179055506107118061015b6000396000f3fe608060405234801561001057600080fd5b506004361061007d5760003560e01c80636165a7a41161005b5780636165a7a414610136578063b2c2f2e8146101a4578063bcd60f6c1461020e578063d4d4b5ac146102505761007d565b80630121b93f146100825780634420e486146100b05780634fc8a20d146100f4575b600080fd5b6100ae6004803603602081101561009857600080fd5b810190808035906020019092919050505061029a565b005b6100f2600480360360208110156100c657600080fd5b81019080803573ffffffffffffffffffffffffffffffffffffffff1690602001909291905050506103b2565b005b6101206004803603602081101561010a57600080fd5b8101908080359060200190929190505050610587565b6040518082815260200191505060405180910390f35b6101626004803603602081101561014c57600080fd5b810190808035906020019092919050505061059f565b604051808273ffffffffffffffffffffffffffffffffffffffff1673ffffffffffffffffffffffffffffffffffffffff16815260200191505060405180910390f35b6101d0600480360360208110156101ba57600080fd5b81019080803590602001909291905050506105cb565b6040518082602360200280838360005b838110156101fb5780820151818401526020810190506101e0565b5050505090500191505060405180910390f35b61023a6004803603602081101561022457600080fd5b8101908080359060200190929190505050610618565b6040518082815260200191505060405180910390f35b61025861066d565b604051808273ffffffffffffffffffffffffffffffffffffffff1673ffffffffffffffffffffffffffffffffffffffff16815260200191505060405180910390f35b6000602460003373ffffffffffffffffffffffffffffffffffffffff1673ffffffffffffffffffffffffffffffffffffffff16815260200190815260200160002090508060000160009054906101000a900460ff16806102fb575060238210155b8061031557508060020160009054906101000a900460ff16155b1561036b576040517f08c379a00000000000000000000000000000000000000000000000000000000081526004018080602001828103825260268152602001806106b76026913960400191505060405180910390fd5b60018160000160006101000a81548160ff0219169083151502179055508181600101819055506001600083602381106103a057fe5b01600082825401925050819055505050565b602360009054906101000a900473ffffffffffffffffffffffffffffffffffffffff1673ffffffffffffffffffffffffffffffffffffffff163373ffffffffffffffffffffffffffffffffffffffff161461040c57600080fd5b602460008273ffffffffffffffffffffffffffffffffffffffff1673ffffffffffffffffffffffffffffffffffffffff16815260200190815260200160002060020160009054906101000a900460ff166104ce576040517f08c379a00000000000000000000000000000000000000000000000000000000081526004018080602001828103825260128152602001807f416c72656164792072656769737465726564000000000000000000000000000081525060200191505060405180910390fd5b6000602460008373ffffffffffffffffffffffffffffffffffffffff1673ffffffffffffffffffffffffffffffffffffffff16815260200190815260200160002060000160006101000a81548160ff0219169083151502179055506001602460008373ffffffffffffffffffffffffffffffffffffffff1673ffffffffffffffffffffffffffffffffffffffff16815260200190815260200160002060020160006101000a81548160ff02191690831515021790555050565b6000816023811061059457fe5b016000915090505481565b6000602360009054906101000a900473ffffffffffffffffffffffffffffffffffffffff169050919050565b6105d3610693565b600060238060200260405190810160405280929190826023801561060c576020028201915b8154815260200190600101908083116105f8575b50505050509050919050565b6000806000905060008090505b602381101561066657816000826023811061063c57fe5b01541115610659576000816023811061065157fe5b015491508092505b8080600101915050610625565b5050919050565b602360009054906101000a900473ffffffffffffffffffffffffffffffffffffffff1681565b60405180610460016040528060239060208202803883398082019150509050509056fe526571756972656d656e747320617265206e6f742073617469736669656420746f20766f7465a265627a7a723158201db03b03d0ffcfd7c47ace2872efb5218ade4d614d6de917323319f7b626fabe64736f6c63430005100032",
  "source": "// SPDX-License-Identifier: MIT\npragma solidity >=0.4.22 <0.9.0;\n\ncontract Ballot {\n    \n    struct Voter {\n        bool voted;\n        uint vote;\n        bool registered;\n    }\n\n    uint[35] public voteCount;\n    address public chairPerson;\n    mapping(address => Voter) voters;\n\n    modifier onlyOwner() {\n        require(msg.sender == chairPerson);\n        _;\n    }\n    \n    constructor() public {\n        chairPerson = msg.sender;\n        voters[chairPerson].registered = true;\n        voters[chairPerson].voted = false;\n    }\n\n    function getChairPerson(uint id) public view returns (address){\n        return chairPerson;\n    }\n\n    function register(address toVoter) public onlyOwner {\n        require(voters[toVoter].registered, \"Already registered\");\n        voters[toVoter].voted = false;\n        voters[toVoter].registered = true;\n    }\n\n    function vote(uint toProposal) public {\n        Voter storage sender = voters[msg.sender];\n        require(!(sender.voted || toProposal >= 35 || !sender.registered), \"Requirements are not satisfied to vote\");\n        sender.voted = true;\n        sender.vote = toProposal;\n        voteCount[toProposal] += 1;\n    }\n\n    function winningProposal(uint id) public view returns (uint256 _winningProposal) {\n        uint winningVoteCount = 0;\n        for (uint256 index = 0; index < 35; index++) {\n            if (voteCount[index] > winningVoteCount) {\n                winningVoteCount = voteCount[index];\n                _winningProposal = index;\n            }\n        }\n    }\n\n    function getVoteCount(uint id) public view returns (uint[35] memory) {\n        return voteCount;\n    }\n}\n",
  "sourcePath": "/home/abel/BlockchainElectionVoting/contracts/Ballot.sol",
  "compiler": {
    "name": "solc",
    "version": "0.5.16+commit.9c3226ce.Emscripten.clang"
  },
  "schemaVersion": "3.4.3",
  "updatedAt": "2021-08-20T04:12:07.277Z",
  "networkType": "ethereum",
  "devdoc": {
    "methods": {}
  },
  "userdoc": {
    "methods": {}
  }
}